{
  "contractName": "Deposit",
  "abi": [
    {
      "inputs": [],
      "payable": false,
      "stateMutability": "nonpayable",
      "type": "constructor"
    },
    {
      "anonymous": false,
      "inputs": [
        {
          "indexed": true,
          "internalType": "address",
          "name": "previousOwner",
          "type": "address"
        },
        {
          "indexed": true,
          "internalType": "address",
          "name": "newOwner",
          "type": "address"
        }
      ],
      "name": "OwnershipTransferred",
      "type": "event"
    },
    {
      "payable": true,
      "stateMutability": "payable",
      "type": "fallback"
    },
    {
      "constant": true,
      "inputs": [],
      "name": "currentStatus",
      "outputs": [
        {
          "internalType": "enum Deposit.Status",
          "name": "",
          "type": "uint8"
        }
      ],
      "payable": false,
      "stateMutability": "view",
      "type": "function"
    },
    {
      "constant": true,
      "inputs": [],
      "name": "isOwner",
      "outputs": [
        {
          "internalType": "bool",
          "name": "",
          "type": "bool"
        }
      ],
      "payable": false,
      "stateMutability": "view",
      "type": "function"
    },
    {
      "constant": true,
      "inputs": [],
      "name": "orderBook",
      "outputs": [
        {
          "internalType": "address payable",
          "name": "",
          "type": "address"
        }
      ],
      "payable": false,
      "stateMutability": "view",
      "type": "function"
    },
    {
      "constant": true,
      "inputs": [],
      "name": "owner",
      "outputs": [
        {
          "internalType": "address",
          "name": "",
          "type": "address"
        }
      ],
      "payable": false,
      "stateMutability": "view",
      "type": "function"
    },
    {
      "constant": false,
      "inputs": [],
      "name": "renounceOwnership",
      "outputs": [],
      "payable": false,
      "stateMutability": "nonpayable",
      "type": "function"
    },
    {
      "constant": false,
      "inputs": [
        {
          "internalType": "address",
          "name": "newOwner",
          "type": "address"
        }
      ],
      "name": "transferOwnership",
      "outputs": [],
      "payable": false,
      "stateMutability": "nonpayable",
      "type": "function"
    },
    {
      "constant": false,
      "inputs": [
        {
          "internalType": "address",
          "name": "_orderBook",
          "type": "address"
        }
      ],
      "name": "setOrderBook",
      "outputs": [],
      "payable": false,
      "stateMutability": "nonpayable",
      "type": "function"
    },
    {
      "constant": false,
      "inputs": [
        {
          "internalType": "uint256",
          "name": "amount",
          "type": "uint256"
        }
      ],
      "name": "withdraw",
      "outputs": [],
      "payable": false,
      "stateMutability": "nonpayable",
      "type": "function"
    },
    {
      "constant": false,
      "inputs": [],
      "name": "deposit",
      "outputs": [],
      "payable": true,
      "stateMutability": "payable",
      "type": "function"
    },
    {
      "constant": true,
      "inputs": [],
      "name": "interfaceDeposit",
      "outputs": [
        {
          "internalType": "bool",
          "name": "",
          "type": "bool"
        }
      ],
      "payable": false,
      "stateMutability": "pure",
      "type": "function"
    }
  ],
  "bytecode": "0x608060405234801561001057600080fd5b5060006100216100e760201b60201c565b9050806000806101000a81548173ffffffffffffffffffffffffffffffffffffffff021916908373ffffffffffffffffffffffffffffffffffffffff1602179055508073ffffffffffffffffffffffffffffffffffffffff16600073ffffffffffffffffffffffffffffffffffffffff167f8be0079c531659141344cd1fd0a4f28419497f9722a3daafe3b4186f6b6457e060405160405180910390a35060008060146101000a81548160ff021916908360018111156100dd57fe5b02179055506100ef565b600033905090565b610c82806100fe6000396000f3fe6080604052600436106100915760003560e01c80638f32d59b116100595780638f32d59b146102225780639a1598c814610251578063d0e30db0146102a2578063ef8a9235146102ac578063f2fde38b146102e557610091565b806303fb0e20146100f35780632e1a7d4d14610122578063715018a61461015d578063776af5ba146101745780638da5cb5b146101cb575b3073ffffffffffffffffffffffffffffffffffffffff1663d0e30db06040518163ffffffff1660e01b8152600401600060405180830381600087803b1580156100d957600080fd5b505af11580156100ed573d6000803e3d6000fd5b50505050005b3480156100ff57600080fd5b50610108610336565b604051808215151515815260200191505060405180910390f35b34801561012e57600080fd5b5061015b6004803603602081101561014557600080fd5b810190808035906020019092919050505061033f565b005b34801561016957600080fd5b50610172610547565b005b34801561018057600080fd5b50610189610680565b604051808273ffffffffffffffffffffffffffffffffffffffff1673ffffffffffffffffffffffffffffffffffffffff16815260200191505060405180910390f35b3480156101d757600080fd5b506101e06106a6565b604051808273ffffffffffffffffffffffffffffffffffffffff1673ffffffffffffffffffffffffffffffffffffffff16815260200191505060405180910390f35b34801561022e57600080fd5b506102376106cf565b604051808215151515815260200191505060405180910390f35b34801561025d57600080fd5b506102a06004803603602081101561027457600080fd5b81019080803573ffffffffffffffffffffffffffffffffffffffff16906020019092919050505061072d565b005b6102aa6108ac565b005b3480156102b857600080fd5b506102c16109f1565b604051808260018111156102d157fe5b60ff16815260200191505060405180910390f35b3480156102f157600080fd5b506103346004803603602081101561030857600080fd5b81019080803573ffffffffffffffffffffffffffffffffffffffff169060200190929190505050610a04565b005b60006001905090565b600160009054906101000a900473ffffffffffffffffffffffffffffffffffffffff1673ffffffffffffffffffffffffffffffffffffffff163373ffffffffffffffffffffffffffffffffffffffff16146103e5576040517f08c379a0000000000000000000000000000000000000000000000000000000008152600401808060200182810382526024815260200180610c2a6024913960400191505060405180910390fd5b60018060018111156103f357fe5b600060149054906101000a900460ff16600181111561040e57fe5b14610481576040517f08c379a00000000000000000000000000000000000000000000000000000000081526004018080602001828103825260168152602001807f537461747573206973206e6f7420636f72726563742e0000000000000000000081525060200191505060405180910390fd5b814710156104da576040517f08c379a000000000000000000000000000000000000000000000000000000000815260040180806020018281038252602d815260200180610bfd602d913960400191505060405180910390fd5b600160009054906101000a900473ffffffffffffffffffffffffffffffffffffffff1673ffffffffffffffffffffffffffffffffffffffff166108fc839081150290604051600060405180830381858888f19350505050158015610542573d6000803e3d6000fd5b505050565b61054f6106cf565b6105c1576040517f08c379a00000000000000000000000000000000000000000000000000000000081526004018080602001828103825260208152602001807f4f776e61626c653a2063616c6c6572206973206e6f7420746865206f776e657281525060200191505060405180910390fd5b600073ffffffffffffffffffffffffffffffffffffffff166000809054906101000a900473ffffffffffffffffffffffffffffffffffffffff1673ffffffffffffffffffffffffffffffffffffffff167f8be0079c531659141344cd1fd0a4f28419497f9722a3daafe3b4186f6b6457e060405160405180910390a360008060006101000a81548173ffffffffffffffffffffffffffffffffffffffff021916908373ffffffffffffffffffffffffffffffffffffffff160217905550565b600160009054906101000a900473ffffffffffffffffffffffffffffffffffffffff1681565b60008060009054906101000a900473ffffffffffffffffffffffffffffffffffffffff16905090565b60008060009054906101000a900473ffffffffffffffffffffffffffffffffffffffff1673ffffffffffffffffffffffffffffffffffffffff16610711610a8a565b73ffffffffffffffffffffffffffffffffffffffff1614905090565b6107356106cf565b6107a7576040517f08c379a00000000000000000000000000000000000000000000000000000000081526004018080602001828103825260208152602001807f4f776e61626c653a2063616c6c6572206973206e6f7420746865206f776e657281525060200191505060405180910390fd5b60008060018111156107b557fe5b600060149054906101000a900460ff1660018111156107d057fe5b14610843576040517f08c379a00000000000000000000000000000000000000000000000000000000081526004018080602001828103825260168152602001807f537461747573206973206e6f7420636f72726563742e0000000000000000000081525060200191505060405180910390fd5b81600160006101000a81548173ffffffffffffffffffffffffffffffffffffffff021916908373ffffffffffffffffffffffffffffffffffffffff1602179055506001600060146101000a81548160ff021916908360018111156108a357fe5b02179055505050565b600160009054906101000a900473ffffffffffffffffffffffffffffffffffffffff1673ffffffffffffffffffffffffffffffffffffffff163373ffffffffffffffffffffffffffffffffffffffff1614610952576040517f08c379a0000000000000000000000000000000000000000000000000000000008152600401808060200182810382526024815260200180610c2a6024913960400191505060405180910390fd5b600180600181111561096057fe5b600060149054906101000a900460ff16600181111561097b57fe5b146109ee576040517f08c379a00000000000000000000000000000000000000000000000000000000081526004018080602001828103825260168152602001807f537461747573206973206e6f7420636f72726563742e0000000000000000000081525060200191505060405180910390fd5b50565b600060149054906101000a900460ff1681565b610a0c6106cf565b610a7e576040517f08c379a00000000000000000000000000000000000000000000000000000000081526004018080602001828103825260208152602001807f4f776e61626c653a2063616c6c6572206973206e6f7420746865206f776e657281525060200191505060405180910390fd5b610a8781610a92565b50565b600033905090565b600073ffffffffffffffffffffffffffffffffffffffff168173ffffffffffffffffffffffffffffffffffffffff161415610b18576040517f08c379a0000000000000000000000000000000000000000000000000000000008152600401808060200182810382526026815260200180610bd76026913960400191505060405180910390fd5b8073ffffffffffffffffffffffffffffffffffffffff166000809054906101000a900473ffffffffffffffffffffffffffffffffffffffff1673ffffffffffffffffffffffffffffffffffffffff167f8be0079c531659141344cd1fd0a4f28419497f9722a3daafe3b4186f6b6457e060405160405180910390a3806000806101000a81548173ffffffffffffffffffffffffffffffffffffffff021916908373ffffffffffffffffffffffffffffffffffffffff1602179055505056fe4f776e61626c653a206e6577206f776e657220697320746865207a65726f2061646472657373436f6e7472616374206d757374206861766520656e6f7567682062616c616e636520746f2077697468647261774f6e6c79206f7264657220626f6f6b20636f6e747261637420697320616c6c6f7765642ea265627a7a7231582017c0d86c282a70e677acb8757420b6ac6836fa47aaf7621ae913e11fadaf603764736f6c63430005110032",
  "source": "pragma solidity ^0.5.2;\n\nimport \"@openzeppelin/contracts/ownership/Ownable.sol\";\n\nimport \"../interfaces/DepositInterface.sol\";\n\ncontract Deposit is Ownable, DepositInterface {\n    enum Status {\n        CREATED,\n        INITIALIZED\n    }\n    Status public currentStatus;\n\n    address payable public orderBook;\n    modifier onlyOrderBook() {\n        require(\n            msg.sender == orderBook,\n            \"Only order book contract is allowed.\"\n        ); _;\n    }\n    modifier statusIs(Status status) {\n        require(\n            currentStatus == status,\n            \"Status is not correct.\"\n        ); _;\n    }\n\n    constructor() Ownable() public {\n        currentStatus = Status.CREATED;\n    }\n\n    function setOrderBook(address _orderBook) public\n    onlyOwner()\n    statusIs(Status.CREATED) {\n        orderBook = address(uint160(_orderBook));\n        currentStatus = Status.INITIALIZED;\n    }\n\n    function withdraw(uint256 amount) external\n    onlyOrderBook()\n    statusIs(Status.INITIALIZED) {\n        require(\n            address(this).balance >= amount,\n            \"Contract must have enough balance to withdraw\"\n        );\n        orderBook.transfer(amount);\n    }\n\n    function deposit() external payable\n    onlyOrderBook()\n    statusIs(Status.INITIALIZED) {}\n\n    function interfaceDeposit() external pure returns (bool) {\n        return true;\n    }\n\n    function () external payable {\n        this.deposit();\n    }\n}\n",
  "sourcePath": "/home/przemocny/Projects/krypto/smartbet-token/contracts/dex/Deposit.sol",
  "compiler": {
    "name": "solc",
    "version": "0.5.17+commit.d19bba13.Emscripten.clang"
  },
  "schemaVersion": "3.3.3",
  "updatedAt": "2021-02-08T20:44:45.937Z",
  "devdoc": {
    "methods": {
      "isOwner()": {
        "details": "Returns true if the caller is the current owner."
      },
      "owner()": {
        "details": "Returns the address of the current owner."
      },
      "renounceOwnership()": {
        "details": "Leaves the contract without owner. It will not be possible to call `onlyOwner` functions anymore. Can only be called by the current owner.     * NOTE: Renouncing ownership will leave the contract without an owner, thereby removing any functionality that is only available to the owner."
      },
      "transferOwnership(address)": {
        "details": "Transfers ownership of the contract to a new account (`newOwner`). Can only be called by the current owner."
      }
    }
  },
  "userdoc": {
    "methods": {}
  }
}