{
  "contractName": "SellOrderBook",
  "abi": [
    {
      "inputs": [
        {
          "internalType": "address",
          "name": "depositAddres",
          "type": "address"
        }
      ],
      "payable": false,
      "stateMutability": "nonpayable",
      "type": "constructor"
    },
    {
      "constant": false,
      "inputs": [
        {
          "internalType": "address",
          "name": "giveCurrency",
          "type": "address"
        },
        {
          "internalType": "uint256",
          "name": "give",
          "type": "uint256"
        },
        {
          "internalType": "address",
          "name": "takeCurrency",
          "type": "address"
        },
        {
          "internalType": "uint256",
          "name": "take",
          "type": "uint256"
        }
      ],
      "name": "create",
      "outputs": [],
      "payable": true,
      "stateMutability": "payable",
      "type": "function"
    },
    {
      "constant": true,
      "inputs": [],
      "name": "deposit",
      "outputs": [
        {
          "internalType": "contract DepositInterface",
          "name": "",
          "type": "address"
        }
      ],
      "payable": false,
      "stateMutability": "view",
      "type": "function"
    },
    {
      "constant": false,
      "inputs": [
        {
          "internalType": "uint256",
          "name": "_nonce",
          "type": "uint256"
        }
      ],
      "name": "finalize",
      "outputs": [],
      "payable": true,
      "stateMutability": "payable",
      "type": "function"
    },
    {
      "constant": true,
      "inputs": [],
      "name": "nonce",
      "outputs": [
        {
          "internalType": "uint256",
          "name": "",
          "type": "uint256"
        }
      ],
      "payable": false,
      "stateMutability": "view",
      "type": "function"
    },
    {
      "constant": true,
      "inputs": [
        {
          "internalType": "uint256",
          "name": "",
          "type": "uint256"
        }
      ],
      "name": "orderList",
      "outputs": [
        {
          "internalType": "uint256",
          "name": "nonce",
          "type": "uint256"
        },
        {
          "internalType": "address",
          "name": "giveCurrency",
          "type": "address"
        },
        {
          "internalType": "uint256",
          "name": "give",
          "type": "uint256"
        },
        {
          "internalType": "address",
          "name": "takeCurrency",
          "type": "address"
        },
        {
          "internalType": "uint256",
          "name": "take",
          "type": "uint256"
        },
        {
          "internalType": "address",
          "name": "creator",
          "type": "address"
        },
        {
          "internalType": "enum AbstractOrderBook.Status",
          "name": "status",
          "type": "uint8"
        }
      ],
      "payable": false,
      "stateMutability": "view",
      "type": "function"
    },
    {
      "constant": true,
      "inputs": [
        {
          "internalType": "uint256",
          "name": "",
          "type": "uint256"
        }
      ],
      "name": "orders",
      "outputs": [
        {
          "internalType": "uint256",
          "name": "nonce",
          "type": "uint256"
        },
        {
          "internalType": "address",
          "name": "giveCurrency",
          "type": "address"
        },
        {
          "internalType": "uint256",
          "name": "give",
          "type": "uint256"
        },
        {
          "internalType": "address",
          "name": "takeCurrency",
          "type": "address"
        },
        {
          "internalType": "uint256",
          "name": "take",
          "type": "uint256"
        },
        {
          "internalType": "address",
          "name": "creator",
          "type": "address"
        },
        {
          "internalType": "enum AbstractOrderBook.Status",
          "name": "status",
          "type": "uint8"
        }
      ],
      "payable": false,
      "stateMutability": "view",
      "type": "function"
    }
  ],
  "bytecode": "0x60806040526000805534801561001457600080fd5b506040516115b73803806115b78339818101604052602081101561003757600080fd5b81019080805190602001909291905050508060008190508073ffffffffffffffffffffffffffffffffffffffff166303fb0e206040518163ffffffff1660e01b815260040160206040518083038186803b15801561009457600080fd5b505afa1580156100a8573d6000803e3d6000fd5b505050506040513d60208110156100be57600080fd5b8101908080519060200190929190505050610141576040517f08c379a000000000000000000000000000000000000000000000000000000000815260040180806020018281038252601b8152602001807f4d7573742062652061204465706f73697420636f6e747261637421000000000081525060200191505060405180910390fd5b80600360006101000a81548173ffffffffffffffffffffffffffffffffffffffff021916908373ffffffffffffffffffffffffffffffffffffffff160217905550505050611423806101946000396000f3fe6080604052600436106100555760003560e01c806305261aea1461005a57806376f75e7f14610088578063a85c38ef14610193578063affed0e01461029e578063ce8a7da4146102c9578063d0e30db014610341575b600080fd5b6100866004803603602081101561007057600080fd5b8101908080359060200190929190505050610398565b005b34801561009457600080fd5b506100c1600480360360208110156100ab57600080fd5b81019080803590602001909291905050506105d7565b604051808881526020018773ffffffffffffffffffffffffffffffffffffffff1673ffffffffffffffffffffffffffffffffffffffff1681526020018681526020018573ffffffffffffffffffffffffffffffffffffffff1673ffffffffffffffffffffffffffffffffffffffff1681526020018481526020018373ffffffffffffffffffffffffffffffffffffffff1673ffffffffffffffffffffffffffffffffffffffff16815260200182600181111561017957fe5b60ff16815260200197505050505050505060405180910390f35b34801561019f57600080fd5b506101cc600480360360208110156101b657600080fd5b8101908080359060200190929190505050610693565b604051808881526020018773ffffffffffffffffffffffffffffffffffffffff1673ffffffffffffffffffffffffffffffffffffffff1681526020018681526020018573ffffffffffffffffffffffffffffffffffffffff1673ffffffffffffffffffffffffffffffffffffffff1681526020018481526020018373ffffffffffffffffffffffffffffffffffffffff1673ffffffffffffffffffffffffffffffffffffffff16815260200182600181111561028457fe5b60ff16815260200197505050505050505060405180910390f35b3480156102aa57600080fd5b506102b3610742565b6040518082815260200191505060405180910390f35b61033f600480360360808110156102df57600080fd5b81019080803573ffffffffffffffffffffffffffffffffffffffff16906020019092919080359060200190929190803573ffffffffffffffffffffffffffffffffffffffff16906020019092919080359060200190929190505050610748565b005b34801561034d57600080fd5b50610356610add565b604051808273ffffffffffffffffffffffffffffffffffffffff1673ffffffffffffffffffffffffffffffffffffffff16815260200191505060405180910390f35b6000600260008381526020019081526020016000209050600060018111156103bc57fe5b8160050160149054906101000a900460ff1660018111156103d957fe5b1461044c576040517f08c379a00000000000000000000000000000000000000000000000000000000081526004018080602001828103825260138152602001807f4f72646572206973206e6f74206163746976650000000000000000000000000081525060200191505060405180910390fd5b6105ad816040518060e0016040529081600082015481526020016001820160009054906101000a900473ffffffffffffffffffffffffffffffffffffffff1673ffffffffffffffffffffffffffffffffffffffff1673ffffffffffffffffffffffffffffffffffffffff168152602001600282015481526020016003820160009054906101000a900473ffffffffffffffffffffffffffffffffffffffff1673ffffffffffffffffffffffffffffffffffffffff1673ffffffffffffffffffffffffffffffffffffffff168152602001600482015481526020016005820160009054906101000a900473ffffffffffffffffffffffffffffffffffffffff1673ffffffffffffffffffffffffffffffffffffffff1673ffffffffffffffffffffffffffffffffffffffff1681526020016005820160149054906101000a900460ff16600181111561059957fe5b60018111156105a457fe5b81525050610b03565b60018160050160146101000a81548160ff021916908360018111156105ce57fe5b02179055505050565b600181815481106105e457fe5b90600052602060002090600602016000915090508060000154908060010160009054906101000a900473ffffffffffffffffffffffffffffffffffffffff16908060020154908060030160009054906101000a900473ffffffffffffffffffffffffffffffffffffffff16908060040154908060050160009054906101000a900473ffffffffffffffffffffffffffffffffffffffff16908060050160149054906101000a900460ff16905087565b60026020528060005260406000206000915090508060000154908060010160009054906101000a900473ffffffffffffffffffffffffffffffffffffffff16908060020154908060030160009054906101000a900473ffffffffffffffffffffffffffffffffffffffff16908060040154908060050160009054906101000a900473ffffffffffffffffffffffffffffffffffffffff16908060050160149054906101000a900460ff16905087565b60005481565b6000831180156107585750600081115b6107ad576040517f08c379a00000000000000000000000000000000000000000000000000000000081526004018080602001828103825260268152602001806113536026913960400191505060405180910390fd5b6107b8848484610f24565b6107c06112c8565b6040518060e0016040528060005481526020018673ffffffffffffffffffffffffffffffffffffffff1681526020018581526020018473ffffffffffffffffffffffffffffffffffffffff1681526020018381526020013373ffffffffffffffffffffffffffffffffffffffff1681526020016000600181111561084057fe5b81525090508060026000805481526020019081526020016000206000820151816000015560208201518160010160006101000a81548173ffffffffffffffffffffffffffffffffffffffff021916908373ffffffffffffffffffffffffffffffffffffffff1602179055506040820151816002015560608201518160030160006101000a81548173ffffffffffffffffffffffffffffffffffffffff021916908373ffffffffffffffffffffffffffffffffffffffff1602179055506080820151816004015560a08201518160050160006101000a81548173ffffffffffffffffffffffffffffffffffffffff021916908373ffffffffffffffffffffffffffffffffffffffff16021790555060c08201518160050160146101000a81548160ff0219169083600181111561097157fe5b0217905550905050600181908060018154018082558091505090600182039060005260206000209060060201600090919290919091506000820151816000015560208201518160010160006101000a81548173ffffffffffffffffffffffffffffffffffffffff021916908373ffffffffffffffffffffffffffffffffffffffff1602179055506040820151816002015560608201518160030160006101000a81548173ffffffffffffffffffffffffffffffffffffffff021916908373ffffffffffffffffffffffffffffffffffffffff1602179055506080820151816004015560a08201518160050160006101000a81548173ffffffffffffffffffffffffffffffffffffffff021916908373ffffffffffffffffffffffffffffffffffffffff16021790555060c08201518160050160146101000a81548160ff02191690836001811115610abe57fe5b0217905550505050600160008082825401925050819055505050505050565b600360009054906101000a900473ffffffffffffffffffffffffffffffffffffffff1681565b60008160200151905081604001518173ffffffffffffffffffffffffffffffffffffffff166370a082318460a001516040518263ffffffff1660e01b8152600401808273ffffffffffffffffffffffffffffffffffffffff1673ffffffffffffffffffffffffffffffffffffffff16815260200191505060206040518083038186803b158015610b9257600080fd5b505afa158015610ba6573d6000803e3d6000fd5b505050506040513d6020811015610bbc57600080fd5b81019080805190602001909291905050501015610c24576040517f08c379a00000000000000000000000000000000000000000000000000000000081526004018080602001828103825260228152602001806113cd6022913960400191505060405180910390fd5b81604001518173ffffffffffffffffffffffffffffffffffffffff1663dd62ed3e8460a00151306040518363ffffffff1660e01b8152600401808373ffffffffffffffffffffffffffffffffffffffff1673ffffffffffffffffffffffffffffffffffffffff1681526020018273ffffffffffffffffffffffffffffffffffffffff1673ffffffffffffffffffffffffffffffffffffffff1681526020019250505060206040518083038186803b158015610cde57600080fd5b505afa158015610cf2573d6000803e3d6000fd5b505050506040513d6020811015610d0857600080fd5b81019080805190602001909291905050501015610d70576040517f08c379a000000000000000000000000000000000000000000000000000000000815260040180806020018281038252602c815260200180611379602c913960400191505060405180910390fd5b81608001513414610dcc576040517f08c379a00000000000000000000000000000000000000000000000000000000081526004018080602001828103825260288152602001806113a56028913960400191505060405180910390fd5b8073ffffffffffffffffffffffffffffffffffffffff166323b872dd8360a001513385604001516040518463ffffffff1660e01b8152600401808473ffffffffffffffffffffffffffffffffffffffff1673ffffffffffffffffffffffffffffffffffffffff1681526020018373ffffffffffffffffffffffffffffffffffffffff1673ffffffffffffffffffffffffffffffffffffffff1681526020018281526020019350505050602060405180830381600087803b158015610e8f57600080fd5b505af1158015610ea3573d6000803e3d6000fd5b505050506040513d6020811015610eb957600080fd5b81019080805190602001909291905050505060008260a0015190508073ffffffffffffffffffffffffffffffffffffffff166108fc84608001519081150290604051600060405180830381858888f19350505050158015610f1e573d6000803e3d6000fd5b50505050565b600073ffffffffffffffffffffffffffffffffffffffff168373ffffffffffffffffffffffffffffffffffffffff161415610fc7576040517f08c379a000000000000000000000000000000000000000000000000000000000815260040180806020018281038252600f8152602001807f4d7573742073656c6c20746f6b656e000000000000000000000000000000000081525060200191505060405180910390fd5b600073ffffffffffffffffffffffffffffffffffffffff168173ffffffffffffffffffffffffffffffffffffffff1614611069576040517f08c379a000000000000000000000000000000000000000000000000000000000815260040180806020018281038252600e8152602001807f4d7573742062757920657468657200000000000000000000000000000000000081525060200191505060405180910390fd5b6000839050828173ffffffffffffffffffffffffffffffffffffffff166370a08231336040518263ffffffff1660e01b8152600401808273ffffffffffffffffffffffffffffffffffffffff1673ffffffffffffffffffffffffffffffffffffffff16815260200191505060206040518083038186803b1580156110ec57600080fd5b505afa158015611100573d6000803e3d6000fd5b505050506040513d602081101561111657600080fd5b8101908080519060200190929190505050101561117e576040517f08c379a00000000000000000000000000000000000000000000000000000000081526004018080602001828103825260228152602001806113cd6022913960400191505060405180910390fd5b828173ffffffffffffffffffffffffffffffffffffffff1663dd62ed3e33306040518363ffffffff1660e01b8152600401808373ffffffffffffffffffffffffffffffffffffffff1673ffffffffffffffffffffffffffffffffffffffff1681526020018273ffffffffffffffffffffffffffffffffffffffff1673ffffffffffffffffffffffffffffffffffffffff1681526020019250505060206040518083038186803b15801561123057600080fd5b505afa158015611244573d6000803e3d6000fd5b505050506040513d602081101561125a57600080fd5b810190808051906020019092919050505010156112c2576040517f08c379a000000000000000000000000000000000000000000000000000000000815260040180806020018281038252602c815260200180611379602c913960400191505060405180910390fd5b50505050565b6040518060e0016040528060008152602001600073ffffffffffffffffffffffffffffffffffffffff16815260200160008152602001600073ffffffffffffffffffffffffffffffffffffffff16815260200160008152602001600073ffffffffffffffffffffffffffffffffffffffff1681526020016000600181111561134c57fe5b8152509056fe4769766520616e642074616b656e206d7573742062652067726561746572207468616e20302143726561746f72206d75737420616c6c6f7720746f6b656e7320746f206265207472616e73666572726564214d757374206465706f73697420657468657220746f2066696e616c697a652053656c6c4f7264657243726561746f72206d757374206861766520726571756972656420746f6b656e7321a265627a7a7231582012c9373ff673c2867119865b88fe1ca8e358c20d910cd7d3289bc6f80e7cf66f64736f6c63430005110032",
  "source": "pragma solidity ^0.5.2;\n\nimport \"@openzeppelin/contracts/token/ERC20/IERC20.sol\";\n\nimport './AbstractOrderBook.sol';\n\ncontract SellOrderBook is AbstractOrderBook {\n    constructor(address depositAddres) AbstractOrderBook(depositAddres) public {}\n\n    function _preCreate(\n        address giveCurrency,\n        uint256 give,\n        address takeCurrency\n    ) internal {\n        require(\n            giveCurrency != address(0x0),\n            \"Must sell token\"\n        );\n        require(\n            takeCurrency == address(0x0),\n            \"Must buy ether\"\n        );\n        IERC20 token = IERC20(giveCurrency);\n        require(\n            token.balanceOf(msg.sender) >= give,\n            \"Creator must have required tokens!\"\n        );\n        require(\n            token.allowance(msg.sender, address(this)) >= give,\n            \"Creator must allow tokens to be transferred!\"\n        );\n    }\n\n    function _finalize(Order memory order) internal {\n        IERC20 token = IERC20(order.giveCurrency);\n        require(\n            token.balanceOf(order.creator) >= order.give,\n            \"Creator must have required tokens!\"\n        );\n        require(\n            token.allowance(order.creator, address(this)) >= order.give,\n            \"Creator must allow tokens to be transferred!\"\n        );\n        require(\n            msg.value == order.take,\n            \"Must deposit ether to finalize SellOrder\"\n        );\n        token.transferFrom(order.creator, msg.sender, order.give);\n        address payable seller = address(uint160(order.creator));\n        seller.transfer(order.take);\n    }\n}\n",
  "sourcePath": "/home/przemocny/Projects/krypto/smartbet-token/contracts/dex/SellOrderBook.sol",
  "compiler": {
    "name": "solc",
    "version": "0.5.17+commit.d19bba13.Emscripten.clang"
  },
  "schemaVersion": "3.3.3",
  "updatedAt": "2021-02-08T20:44:45.940Z",
  "devdoc": {
    "methods": {}
  },
  "userdoc": {
    "methods": {}
  }
}